{"project/contracts/BSCS4BBudgetBill.sol":{"BSCS4BBudgetBill":{"abi":[{"inputs":[],"stateMutability":"nonpayable","type":"constructor"},{"anonymous":false,"inputs":[{"indexed":true,"internalType":"address","name":"who","type":"address"},{"indexed":false,"internalType":"bool","name":"approved","type":"bool"}],"name":"RecipientApproved","type":"event"},{"anonymous":false,"inputs":[{"indexed":true,"internalType":"address","name":"who","type":"address"},{"indexed":false,"internalType":"bool","name":"approved","type":"bool"}],"name":"SenderApproved","type":"event"},{"anonymous":false,"inputs":[{"indexed":true,"internalType":"uint256","name":"index","type":"uint256"},{"indexed":true,"internalType":"address","name":"from","type":"address"},{"indexed":false,"internalType":"string","name":"senderName","type":"string"},{"indexed":true,"internalType":"address","name":"to","type":"address"},{"indexed":false,"internalType":"string","name":"recipientName","type":"string"},{"indexed":false,"internalType":"uint256","name":"amount","type":"uint256"},{"indexed":false,"internalType":"string","name":"currency","type":"string"},{"indexed":false,"internalType":"string","name":"purpose","type":"string"},{"indexed":false,"internalType":"uint256","name":"date","type":"uint256"}],"name":"TransactionRecorded","type":"event"},{"inputs":[{"internalType":"string","name":"senderName","type":"string"},{"internalType":"address","name":"to","type":"address"},{"internalType":"string","name":"recipientName","type":"string"},{"internalType":"uint256","name":"amount","type":"uint256"},{"internalType":"string","name":"currency","type":"string"},{"internalType":"string","name":"purpose","type":"string"},{"internalType":"uint256","name":"date","type":"uint256"}],"name":"addTransaction","outputs":[{"internalType":"uint256","name":"","type":"uint256"}],"stateMutability":"nonpayable","type":"function"},{"inputs":[{"internalType":"address","name":"","type":"address"}],"name":"approvedRecipients","outputs":[{"internalType":"bool","name":"","type":"bool"}],"stateMutability":"view","type":"function"},{"inputs":[{"internalType":"address","name":"","type":"address"}],"name":"approvedSenders","outputs":[{"internalType":"bool","name":"","type":"bool"}],"stateMutability":"view","type":"function"},{"inputs":[],"name":"getApprovedRecipients","outputs":[{"internalType":"address[]","name":"","type":"address[]"}],"stateMutability":"view","type":"function"},{"inputs":[],"name":"getApprovedSenders","outputs":[{"internalType":"address[]","name":"","type":"address[]"}],"stateMutability":"view","type":"function"},{"inputs":[{"internalType":"uint256","name":"index","type":"uint256"}],"name":"getTransaction","outputs":[{"components":[{"internalType":"address","name":"from","type":"address"},{"internalType":"string","name":"senderName","type":"string"},{"internalType":"address","name":"to","type":"address"},{"internalType":"string","name":"recipientName","type":"string"},{"internalType":"uint256","name":"amount","type":"uint256"},{"internalType":"string","name":"currency","type":"string"},{"internalType":"string","name":"purpose","type":"string"},{"internalType":"uint256","name":"date","type":"uint256"}],"internalType":"struct BSCS4BBudgetBill.BSCS4BBudgetBillTxn","name":"","type":"tuple"}],"stateMutability":"view","type":"function"},{"inputs":[],"name":"getTransactionCount","outputs":[{"internalType":"uint256","name":"","type":"uint256"}],"stateMutability":"view","type":"function"},{"inputs":[{"internalType":"address","name":"who","type":"address"}],"name":"isApprovedRecipient","outputs":[{"internalType":"bool","name":"","type":"bool"}],"stateMutability":"view","type":"function"},{"inputs":[{"internalType":"address","name":"who","type":"address"}],"name":"isApprovedSender","outputs":[{"internalType":"bool","name":"","type":"bool"}],"stateMutability":"view","type":"function"},{"inputs":[],"name":"owner","outputs":[{"internalType":"address","name":"","type":"address"}],"stateMutability":"view","type":"function"},{"inputs":[{"internalType":"address","name":"who","type":"address"},{"internalType":"bool","name":"approved","type":"bool"}],"name":"setApprovedRecipient","outputs":[],"stateMutability":"nonpayable","type":"function"},{"inputs":[{"internalType":"address","name":"who","type":"address"},{"internalType":"bool","name":"approved","type":"bool"}],"name":"setApprovedSender","outputs":[],"stateMutability":"nonpayable","type":"function"},{"inputs":[{"internalType":"uint256","name":"","type":"uint256"}],"name":"transactions","outputs":[{"internalType":"address","name":"from","type":"address"},{"internalType":"string","name":"senderName","type":"string"},{"internalType":"address","name":"to","type":"address"},{"internalType":"string","name":"recipientName","type":"string"},{"internalType":"uint256","name":"amount","type":"uint256"},{"internalType":"string","name":"currency","type":"string"},{"internalType":"string","name":"purpose","type":"string"},{"internalType":"uint256","name":"date","type":"uint256"}],"stateMutability":"view","type":"function"},{"inputs":[{"internalType":"address","name":"newOwner","type":"address"}],"name":"transferOwnership","outputs":[],"stateMutability":"nonpayable","type":"function"}],"evm":{"bytecode":{"linkReferences":{},"object":"608080604052346026575f80546001600160a01b031916331790556113dc908161002b8239f35b5f80fdfe6080806040526004361015610012575f80fd5b5f3560e01c908163156c077d14610ea3575080631ccf9435146100b65780632a0d31d41461078b5780632c0f1243146106fe5780632e7700f0146106e157806333ea3dc8146105025780638da5cb5b146104db5780639ace38c2146103c0578063ad3c3e17146102ba578063d7d0a094146101b4578063dbd5c31714610177578063dead610a14610177578063f2fde38b146100f75763fe04d690146100b6575f80fd5b346100f35760203660031901126100f3576001600160a01b036100d7610f5e565b165f526002602052602060ff60405f2054166040519015158152f35b5f80fd5b346100f35760203660031901126100f357610110610f5e565b5f5490610127336001600160a01b0384161461111d565b6001600160a01b0316908115610146576001600160a01b031916175f55005b60405162461bcd60e51b81526020600482015260096024820152683d32b9379030b2323960b91b6044820152606490fd5b346100f35760203660031901126100f3576001600160a01b03610198610f5e565b165f526004602052602060ff60405f2054166040519015158152f35b346100f3576101c2366110ee565b6101d660018060a01b035f5416331461111d565b1561024d576001600160a01b0381165f8181526004602052604090205490919060ff161561020057005b61022090825f52600460205260405f20600160ff19825416179055611344565b7fd97c575fbf73d29b227ba4a00e8072cfc43588a3263adb45d032c486485db9b0602060405160018152a2005b6001600160a01b0381165f8181526004602052604090205490919060ff1661027157005b61028e90825f52600460205260405f2060ff19815416905561124d565b7fd97c575fbf73d29b227ba4a00e8072cfc43588a3263adb45d032c486485db9b060206040515f8152a2005b346100f3576102c8366110ee565b6102dc60018060a01b035f5416331461111d565b15610353576001600160a01b0381165f8181526002602052604090205490919060ff161561030657005b61032690825f52600260205260405f20600160ff198254161790556112e0565b7f96642ea8ee7b4cae01287d74c31be45505813daa733334194b16b0f259c4bfb3602060405160018152a2005b6001600160a01b0381165f8181526002602052604090205490919060ff1661037757005b61039490825f52600260205260405f2060ff19815416905561116a565b7f96642ea8ee7b4cae01287d74c31be45505813daa733334194b16b0f259c4bfb360206040515f8152a2005b346100f35760203660031901126100f3576004356001548110156100f3576103e790610fc6565b5060018060a01b038154166040519161040e83610407816001850161102e565b03846110cc565b6002810154604051916104d1916104c3906001600160a01b031661044085610439816003870161102e565b03866110cc565b6004830154906104b06040519161045e836104078160058a0161102e565b60076040519661047c88610475816006850161102e565b03896110cc565b01549761049d6040519b8c9b8c5261010060208d01526101008c0190610fa2565b9160408b015289820360608b0152610fa2565b91608088015286820360a0880152610fa2565b9084820360c0860152610fa2565b9060e08301520390f35b346100f3575f3660031901126100f3575f546040516001600160a01b039091168152602090f35b346100f35760203660031901126100f3576004355f60e0604051610525816110af565b82815260606020820152826040820152606080820152826080820152606060a0820152606060c082015201526001548110156106b05761056490610fc6565b50604051610571816110af565b81546001600160a01b031681526040519161059383610407816001850161102e565b6020820192835260028101546001600160a01b0316604080840191825251916106a491610691906105cb85610439816003870161102e565b6060860194855260048301549060808701918252610678604051916105f7836104078160058a0161102e565b60a0890192835260076040519661061588610475816006850161102e565b60c08b0197885201549760e08a019889526106566040519b8c9b60208d5260018060a01b0390511660208d01525161010060408d01526101208c0190610fa2565b91516001600160a01b031660608b015251898203601f190160808b0152610fa2565b915160a088015251868203601f190160c0880152610fa2565b9051848203601f190160e0860152610fa2565b90516101008301520390f35b60405162461bcd60e51b815260206004820152600960248201526824b73232bc1027a7a160b91b6044820152606490fd5b346100f3575f3660031901126100f3576020600154604051908152f35b346100f3575f3660031901126100f35760405180602060055491828152019060055f527f036b6384b5eca791c62761152d0c79bb0604c104a5fb6f4eb0703f3154bb3db0905f5b81811061076c576107688561075c818703826110cc565b60405191829182610f1c565b0390f35b82546001600160a01b0316845260209093019260019283019201610745565b346100f35760e03660031901126100f35760043567ffffffffffffffff81116100f3576107bc903690600401610f74565b6024356001600160a01b03811691908290036100f35760443567ffffffffffffffff81116100f3576107f2903690600401610f74565b929060843567ffffffffffffffff81116100f357610814903690600401610f74565b93909160a43567ffffffffffffffff81116100f357610837903690600401610f74565b93909260c43594335f52600260205260ff60405f20541615610e6857865f52600460205260ff60405f20541615610e2a5760015498600160401b8a1015610bb35760018a01806001556108898b610fc6565b50508a11610e165761089a8a610fc6565b5080546001600160a01b03191633178155600181019b90939067ffffffffffffffff8211610bb3578c82916108cf8254610ff6565b601f8111610dbc575b505f91601f8411600114610d5657505f92610d4b575b50508160011b915f199060031b1c1916178b555b6002830180546001600160a01b0319169098178855600383019467ffffffffffffffff8211610bb35781906109378754610ff6565b601f8111610cfb575b505f90601f8311600114610c94575f92610c89575b50508160011b915f199060031b1c19161784555b60048201976064358955600583019367ffffffffffffffff8211610bb35781906109938654610ff6565b601f8111610c39575b505f90601f8311600114610bd2575f92610bc7575b50508160011b915f199060031b1c19161783555b600682019467ffffffffffffffff8211610bb3576109e38654610ff6565b601f8111610b6e575b509160209a9593918a9795935f90601f8311600114610ad45793610a977faf677587e31ccfb15d9ee077663b9d20deaa6d2e509d8a978bc3a638a7431a1299979484610aaa95610a899b9995610ab8995f92610ac9575b50508160011b915f199060031b1c19161786555b87600782015560018060a01b039054169b60018060a01b039054169c5492604051998a9960c08b5260c08b019061102e565b9089820360208b015261102e565b916040880152868203606088015261102e565b90848203608086015261102e565b9060a08301520390a4604051908152f35b013590505f80610a43565b601f19831691875f528e5f20925f5b818110610b53575094600185610a899b9995610ab89995610a97957faf677587e31ccfb15d9ee077663b9d20deaa6d2e509d8a978bc3a638a7431a129f9d9a99610aaa9a10610b3a575b505050811b018655610a57565b01355f19600384901b60f8161c191690555f8080610b2d565b8284013585558f9c5060019094019360209283019201610ae3565b865f5260205f20601f840160051c81019160208510610ba9575b601f0160051c01905b818110610b9e57506109ec565b5f8155600101610b91565b9091508190610b88565b634e487b7160e01b5f52604160045260245ffd5b013590508c806109b1565b909150601f19831691865f5260205f20925f5b818110610c215750908460019594939210610c08575b505050811b0183556109c5565b01355f19600384901b60f8161c191690558c8080610bfb565b91936020600181928787013581550195019201610be5565b909150855f5260205f20601f840160051c81019160208510610c7f575b90601f859493920160051c01905b818110610c71575061099c565b5f8155849350600101610c64565b9091508190610c56565b013590508c80610955565b909150601f19831691875f5260205f20925f5b818110610ce35750908460019594939210610cca575b505050811b018455610969565b01355f19600384901b60f8161c191690558c8080610cbd565b91936020600181928787013581550195019201610ca7565b909150865f5260205f20601f840160051c81019160208510610d41575b90601f859493920160051c01905b818110610d335750610940565b5f8155849350600101610d26565b9091508190610d18565b013590508d806108ee565b925090601f198416925f5260205f20925f5b818110610da45750908460019594939210610d8b575b505050811b018b55610902565b01355f19600384901b60f8161c191690558d8080610d7e565b91936020600181928787013581550195019201610d68565b919092505f5260205f20601f840160051c81019160208510610e0c575b918f9291601f8695930160051c01905b818110610df657506108d8565b90925060019193505f815501918e918493610de9565b9091508190610dd9565b634e487b7160e01b5f52601160045260245ffd5b60405162461bcd60e51b8152602060048201526016602482015275149958da5c1a595b9d081b9bdd08185c1c1c9bdd995960521b6044820152606490fd5b60405162461bcd60e51b815260206004820152601360248201527214d95b99195c881b9bdd08185c1c1c9bdd9959606a1b6044820152606490fd5b346100f3575f3660031901126100f357600354808252602082019060035f527fc2575a0e9e593c00f959f8c92f12db2869c3395a3b0502d05e2516446f71f85b905f5b818110610efd576107688561075c818703826110cc565b82546001600160a01b0316845260209093019260019283019201610ee6565b60206040818301928281528451809452019201905f5b818110610f3f5750505090565b82516001600160a01b0316845260209384019390920191600101610f32565b600435906001600160a01b03821682036100f357565b9181601f840112156100f35782359167ffffffffffffffff83116100f357602083818601950101116100f357565b805180835260209291819084018484015e5f828201840152601f01601f1916010190565b600154811015610fe25760015f5260205f209060031b01905f90565b634e487b7160e01b5f52603260045260245ffd5b90600182811c92168015611024575b602083101461101057565b634e487b7160e01b5f52602260045260245ffd5b91607f1691611005565b5f929181549161103d83610ff6565b8083529260018116908115611092575060011461105957505050565b5f9081526020812093945091925b838310611078575060209250010190565b600181602092949394548385870101520191019190611067565b915050602093945060ff929192191683830152151560051b010190565b610100810190811067ffffffffffffffff821117610bb357604052565b90601f8019910116810190811067ffffffffffffffff821117610bb357604052565b60409060031901126100f3576004356001600160a01b03811681036100f3579060243580151581036100f35790565b1561112457565b60405162461bcd60e51b81526020600482015260096024820152682737ba1037bbb732b960b91b6044820152606490fd5b8054821015610fe2575f5260205f2001905f90565b5f5b6003548082101561124857611182826003611155565b905460039190911b1c6001600160a01b03908116908416146111a7575060010161116c565b5f19810192508211610e16576111dc6111c4611200936003611155565b9054600391821b1c6001600160a01b03169290611155565b81546001600160a01b0393841660039290921b91821b9390911b1916919091179055565b6003548015611234575f190161122f61121a826003611155565b81549060018060a01b039060031b1b19169055565b600355565b634e487b7160e01b5f52603160045260245ffd5b505050565b5f5b6005548082101561124857611265826005611155565b905460039190911b1c6001600160a01b039081169084161461128a575060010161124f565b5f19810192508211610e16576111dc6112a76112c1936005611155565b905460039190911b1c6001600160a01b0316916005611155565b6005548015611234575f19016112db61121a826005611155565b600555565b6003545f5b81811061131557505060035490600160401b821015610bb3576111dc82600161131394016003556003611155565b565b611320816003611155565b905460039190911b1c6001600160a01b0390811690841614611248576001016112e5565b6005545f5b81811061137757505060055490600160401b821015610bb3576111dc82600161131394016005556005611155565b611382816005611155565b905460039190911b1c6001600160a01b03908116908416146112485760010161134956fea2646970667358221220a222e5fa3d217736be4aec2ce76a7704fe64f2ba6241adf5238e2f80ca2f9bb764736f6c634300081c0033","opcodes":"PUSH1 0x80 DUP1 PUSH1 0x40 MSTORE CALLVALUE PUSH1 0x26 JUMPI PUSH0 DUP1 SLOAD PUSH1 0x1 PUSH1 0x1 PUSH1 0xA0 SHL SUB NOT AND CALLER OR SWAP1 SSTORE PUSH2 0x13DC SWAP1 DUP2 PUSH2 0x2B DUP3 CODECOPY RETURN JUMPDEST PUSH0 DUP1 REVERT INVALID PUSH1 0x80 DUP1 PUSH1 0x40 MSTORE PUSH1 0x4 CALLDATASIZE LT ISZERO PUSH2 0x12 JUMPI PUSH0 DUP1 REVERT JUMPDEST PUSH0 CALLDATALOAD PUSH1 0xE0 SHR SWAP1 DUP2 PUSH4 0x156C077D EQ PUSH2 0xEA3 JUMPI POP DUP1 PUSH4 0x1CCF9435 EQ PUSH2 0xB6 JUMPI DUP1 PUSH4 0x2A0D31D4 EQ PUSH2 0x78B JUMPI DUP1 PUSH4 0x2C0F1243 EQ PUSH2 0x6FE JUMPI DUP1 PUSH4 0x2E7700F0 EQ PUSH2 0x6E1 JUMPI DUP1 PUSH4 0x33EA3DC8 EQ PUSH2 0x502 JUMPI DUP1 PUSH4 0x8DA5CB5B EQ PUSH2 0x4DB JUMPI DUP1 PUSH4 0x9ACE38C2 EQ PUSH2 0x3C0 JUMPI DUP1 PUSH4 0xAD3C3E17 EQ PUSH2 0x2BA JUMPI DUP1 PUSH4 0xD7D0A094 EQ PUSH2 0x1B4 JUMPI DUP1 PUSH4 0xDBD5C317 EQ PUSH2 0x177 JUMPI DUP1 PUSH4 0xDEAD610A EQ PUSH2 0x177 JUMPI DUP1 PUSH4 0xF2FDE38B EQ PUSH2 0xF7 JUMPI PUSH4 0xFE04D690 EQ PUSH2 0xB6 JUMPI PUSH0 DUP1 REVERT JUMPDEST CALLVALUE PUSH2 0xF3 JUMPI PUSH1 0x20 CALLDATASIZE PUSH1 0x3 NOT ADD SLT PUSH2 0xF3 JUMPI PUSH1 0x1 PUSH1 0x1 PUSH1 0xA0 SHL SUB PUSH2 0xD7 PUSH2 0xF5E JUMP JUMPDEST AND PUSH0 MSTORE PUSH1 0x2 PUSH1 0x20 MSTORE PUSH1 0x20 PUSH1 0xFF PUSH1 0x40 PUSH0 KECCAK256 SLOAD AND PUSH1 0x40 MLOAD SWAP1 ISZERO ISZERO DUP2 MSTORE RETURN JUMPDEST PUSH0 DUP1 REVERT JUMPDEST CALLVALUE PUSH2 0xF3 JUMPI PUSH1 0x20 CALLDATASIZE PUSH1 0x3 NOT ADD SLT PUSH2 0xF3 JUMPI PUSH2 0x110 PUSH2 0xF5E JUMP JUMPDEST PUSH0 SLOAD SWAP1 PUSH2 0x127 CALLER PUSH1 0x1 PUSH1 0x1 PUSH1 0xA0 SHL SUB DUP5 AND EQ PUSH2 0x111D JUMP JUMPDEST PUSH1 0x1 PUSH1 0x1 PUSH1 0xA0 SHL SUB AND SWAP1 DUP2 ISZERO PUSH2 0x146 JUMPI PUSH1 0x1 PUSH1 0x1 PUSH1 0xA0 SHL SUB NOT AND OR PUSH0 SSTORE STOP JUMPDEST PUSH1 0x40 MLOAD PUSH3 0x461BCD PUSH1 0xE5 SHL DUP2 MSTORE PUSH1 0x20 PUSH1 0x4 DUP3 ADD MSTORE PUSH1 0x9 PUSH1 0x24 DUP3 ADD MSTORE PUSH9 0x3D32B9379030B23239 PUSH1 0xB9 SHL PUSH1 0x44 DUP3 ADD MSTORE PUSH1 0x64 SWAP1 REVERT JUMPDEST CALLVALUE PUSH2 0xF3 JUMPI PUSH1 0x20 CALLDATASIZE PUSH1 0x3 NOT ADD SLT PUSH2 0xF3 JUMPI PUSH1 0x1 PUSH1 0x1 PUSH1 0xA0 SHL SUB PUSH2 0x198 PUSH2 0xF5E JUMP JUMPDEST AND PUSH0 MSTORE PUSH1 0x4 PUSH1 0x20 MSTORE PUSH1 0x20 PUSH1 0xFF PUSH1 0x40 PUSH0 KECCAK256 SLOAD AND PUSH1 0x40 MLOAD SWAP1 ISZERO ISZERO DUP2 MSTORE RETURN JUMPDEST CALLVALUE PUSH2 0xF3 JUMPI PUSH2 0x1C2 CALLDATASIZE PUSH2 0x10EE JUMP JUMPDEST PUSH2 0x1D6 PUSH1 0x1 DUP1 PUSH1 0xA0 SHL SUB PUSH0 SLOAD AND CALLER EQ PUSH2 0x111D JUMP JUMPDEST ISZERO PUSH2 0x24D JUMPI PUSH1 0x1 PUSH1 0x1 PUSH1 0xA0 SHL SUB DUP2 AND PUSH0 DUP2 DUP2 MSTORE PUSH1 0x4 PUSH1 0x20 MSTORE PUSH1 0x40 SWAP1 KECCAK256 SLOAD SWAP1 SWAP2 SWAP1 PUSH1 0xFF AND ISZERO PUSH2 0x200 JUMPI STOP JUMPDEST PUSH2 0x220 SWAP1 DUP3 PUSH0 MSTORE PUSH1 0x4 PUSH1 0x20 MSTORE PUSH1 0x40 PUSH0 KECCAK256 PUSH1 0x1 PUSH1 0xFF NOT DUP3 SLOAD AND OR SWAP1 SSTORE PUSH2 0x1344 JUMP JUMPDEST PUSH32 0xD97C575FBF73D29B227BA4A00E8072CFC43588A3263ADB45D032C486485DB9B0 PUSH1 0x20 PUSH1 0x40 MLOAD PUSH1 0x1 DUP2 MSTORE LOG2 STOP JUMPDEST PUSH1 0x1 PUSH1 0x1 PUSH1 0xA0 SHL SUB DUP2 AND PUSH0 DUP2 DUP2 MSTORE PUSH1 0x4 PUSH1 0x20 MSTORE PUSH1 0x40 SWAP1 KECCAK256 SLOAD SWAP1 SWAP2 SWAP1 PUSH1 0xFF AND PUSH2 0x271 JUMPI STOP JUMPDEST PUSH2 0x28E SWAP1 DUP3 PUSH0 MSTORE PUSH1 0x4 PUSH1 0x20 MSTORE PUSH1 0x40 PUSH0 KECCAK256 PUSH1 0xFF NOT DUP2 SLOAD AND SWAP1 SSTORE PUSH2 0x124D JUMP JUMPDEST PUSH32 0xD97C575FBF73D29B227BA4A00E8072CFC43588A3263ADB45D032C486485DB9B0 PUSH1 0x20 PUSH1 0x40 MLOAD PUSH0 DUP2 MSTORE LOG2 STOP JUMPDEST CALLVALUE PUSH2 0xF3 JUMPI PUSH2 0x2C8 CALLDATASIZE PUSH2 0x10EE JUMP JUMPDEST PUSH2 0x2DC PUSH1 0x1 DUP1 PUSH1 0xA0 SHL SUB PUSH0 SLOAD AND CALLER EQ PUSH2 0x111D JUMP JUMPDEST ISZERO PUSH2 0x353 JUMPI PUSH1 0x1 PUSH1 0x1 PUSH1 0xA0 SHL SUB DUP2 AND PUSH0 DUP2 DUP2 MSTORE PUSH1 0x2 PUSH1 0x20 MSTORE PUSH1 0x40 SWAP1 KECCAK256 SLOAD SWAP1 SWAP2 SWAP1 PUSH1 0xFF AND ISZERO PUSH2 0x306 JUMPI STOP JUMPDEST PUSH2 0x326 SWAP1 DUP3 PUSH0 MSTORE PUSH1 0x2 PUSH1 0x20 MSTORE PUSH1 0x40 PUSH0 KECCAK256 PUSH1 0x1 PUSH1 0xFF NOT DUP3 SLOAD AND OR SWAP1 SSTORE PUSH2 0x12E0 JUMP JUMPDEST PUSH32 0x96642EA8EE7B4CAE01287D74C31BE45505813DAA733334194B16B0F259C4BFB3 PUSH1 0x20 PUSH1 0x40 MLOAD PUSH1 0x1 DUP2 MSTORE LOG2 STOP JUMPDEST PUSH1 0x1 PUSH1 0x1 PUSH1 0xA0 SHL SUB DUP2 AND PUSH0 DUP2 DUP2 MSTORE PUSH1 0x2 PUSH1 0x20 MSTORE PUSH1 0x40 SWAP1 KECCAK256 SLOAD SWAP1 SWAP2 SWAP1 PUSH1 0xFF AND PUSH2 0x377 JUMPI STOP JUMPDEST PUSH2 0x394 SWAP1 DUP3 PUSH0 MSTORE PUSH1 0x2 PUSH1 0x20 MSTORE PUSH1 0x40 PUSH0 KECCAK256 PUSH1 0xFF NOT DUP2 SLOAD AND SWAP1 SSTORE PUSH2 0x116A JUMP JUMPDEST PUSH32 0x96642EA8EE7B4CAE01287D74C31BE45505813DAA733334194B16B0F259C4BFB3 PUSH1 0x20 PUSH1 0x40 MLOAD PUSH0 DUP2 MSTORE LOG2 STOP JUMPDEST CALLVALUE PUSH2 0xF3 JUMPI PUSH1 0x20 CALLDATASIZE PUSH1 0x3 NOT ADD SLT PUSH2 0xF3 JUMPI PUSH1 0x4 CALLDATALOAD PUSH1 0x1 SLOAD DUP2 LT ISZERO PUSH2 0xF3 JUMPI PUSH2 0x3E7 SWAP1 PUSH2 0xFC6 JUMP JUMPDEST POP PUSH1 0x1 DUP1 PUSH1 0xA0 SHL SUB DUP2 SLOAD AND PUSH1 0x40 MLOAD SWAP2 PUSH2 0x40E DUP4 PUSH2 0x407 DUP2 PUSH1 0x1 DUP6 ADD PUSH2 0x102E JUMP JUMPDEST SUB DUP5 PUSH2 0x10CC JUMP JUMPDEST PUSH1 0x2 DUP2 ADD SLOAD PUSH1 0x40 MLOAD SWAP2 PUSH2 0x4D1 SWAP2 PUSH2 0x4C3 SWAP1 PUSH1 0x1 PUSH1 0x1 PUSH1 0xA0 SHL SUB AND PUSH2 0x440 DUP6 PUSH2 0x439 DUP2 PUSH1 0x3 DUP8 ADD PUSH2 0x102E JUMP JUMPDEST SUB DUP7 PUSH2 0x10CC JUMP JUMPDEST PUSH1 0x4 DUP4 ADD SLOAD SWAP1 PUSH2 0x4B0 PUSH1 0x40 MLOAD SWAP2 PUSH2 0x45E DUP4 PUSH2 0x407 DUP2 PUSH1 0x5 DUP11 ADD PUSH2 0x102E JUMP JUMPDEST PUSH1 0x7 PUSH1 0x40 MLOAD SWAP7 PUSH2 0x47C DUP9 PUSH2 0x475 DUP2 PUSH1 0x6 DUP6 ADD PUSH2 0x102E JUMP JUMPDEST SUB DUP10 PUSH2 0x10CC JUMP JUMPDEST ADD SLOAD SWAP8 PUSH2 0x49D PUSH1 0x40 MLOAD SWAP12 DUP13 SWAP12 DUP13 MSTORE PUSH2 0x100 PUSH1 0x20 DUP14 ADD MSTORE PUSH2 0x100 DUP13 ADD SWAP1 PUSH2 0xFA2 JUMP JUMPDEST SWAP2 PUSH1 0x40 DUP12 ADD MSTORE DUP10 DUP3 SUB PUSH1 0x60 DUP12 ADD MSTORE PUSH2 0xFA2 JUMP JUMPDEST SWAP2 PUSH1 0x80 DUP9 ADD MSTORE DUP7 DUP3 SUB PUSH1 0xA0 DUP9 ADD MSTORE PUSH2 0xFA2 JUMP JUMPDEST SWAP1 DUP5 DUP3 SUB PUSH1 0xC0 DUP7 ADD MSTORE PUSH2 0xFA2 JUMP JUMPDEST SWAP1 PUSH1 0xE0 DUP4 ADD MSTORE SUB SWAP1 RETURN JUMPDEST CALLVALUE PUSH2 0xF3 JUMPI PUSH0 CALLDATASIZE PUSH1 0x3 NOT ADD SLT PUSH2 0xF3 JUMPI PUSH0 SLOAD PUSH1 0x40 MLOAD PUSH1 0x1 PUSH1 0x1 PUSH1 0xA0 SHL SUB SWAP1 SWAP2 AND DUP2 MSTORE PUSH1 0x20 SWAP1 RETURN JUMPDEST CALLVALUE PUSH2 0xF3 JUMPI PUSH1 0x20 CALLDATASIZE PUSH1 0x3 NOT ADD SLT PUSH2 0xF3 JUMPI PUSH1 0x4 CALLDATALOAD PUSH0 PUSH1 0xE0 PUSH1 0x40 MLOAD PUSH2 0x525 DUP2 PUSH2 0x10AF JUMP JUMPDEST DUP3 DUP2 MSTORE PUSH1 0x60 PUSH1 0x20 DUP3 ADD MSTORE DUP3 PUSH1 0x40 DUP3 ADD MSTORE PUSH1 0x60 DUP1 DUP3 ADD MSTORE DUP3 PUSH1 0x80 DUP3 ADD MSTORE PUSH1 0x60 PUSH1 0xA0 DUP3 ADD MSTORE PUSH1 0x60 PUSH1 0xC0 DUP3 ADD MSTORE ADD MSTORE PUSH1 0x1 SLOAD DUP2 LT ISZERO PUSH2 0x6B0 JUMPI PUSH2 0x564 SWAP1 PUSH2 0xFC6 JUMP JUMPDEST POP PUSH1 0x40 MLOAD PUSH2 0x571 DUP2 PUSH2 0x10AF JUMP JUMPDEST DUP2 SLOAD PUSH1 0x1 PUSH1 0x1 PUSH1 0xA0 SHL SUB AND DUP2 MSTORE PUSH1 0x40 MLOAD SWAP2 PUSH2 0x593 DUP4 PUSH2 0x407 DUP2 PUSH1 0x1 DUP6 ADD PUSH2 0x102E JUMP JUMPDEST PUSH1 0x20 DUP3 ADD SWAP3 DUP4 MSTORE PUSH1 0x2 DUP2 ADD SLOAD PUSH1 0x1 PUSH1 0x1 PUSH1 0xA0 SHL SUB AND PUSH1 0x40 DUP1 DUP5 ADD SWAP2 DUP3 MSTORE MLOAD SWAP2 PUSH2 0x6A4 SWAP2 PUSH2 0x691 SWAP1 PUSH2 0x5CB DUP6 PUSH2 0x439 DUP2 PUSH1 0x3 DUP8 ADD PUSH2 0x102E JUMP JUMPDEST PUSH1 0x60 DUP7 ADD SWAP5 DUP6 MSTORE PUSH1 0x4 DUP4 ADD SLOAD SWAP1 PUSH1 0x80 DUP8 ADD SWAP2 DUP3 MSTORE PUSH2 0x678 PUSH1 0x40 MLOAD SWAP2 PUSH2 0x5F7 DUP4 PUSH2 0x407 DUP2 PUSH1 0x5 DUP11 ADD PUSH2 0x102E JUMP JUMPDEST PUSH1 0xA0 DUP10 ADD SWAP3 DUP4 MSTORE PUSH1 0x7 PUSH1 0x40 MLOAD SWAP7 PUSH2 0x615 DUP9 PUSH2 0x475 DUP2 PUSH1 0x6 DUP6 ADD PUSH2 0x102E JUMP JUMPDEST PUSH1 0xC0 DUP12 ADD SWAP8 DUP9 MSTORE ADD SLOAD SWAP8 PUSH1 0xE0 DUP11 ADD SWAP9 DUP10 MSTORE PUSH2 0x656 PUSH1 0x40 MLOAD SWAP12 DUP13 SWAP12 PUSH1 0x20 DUP14 MSTORE PUSH1 0x1 DUP1 PUSH1 0xA0 SHL SUB SWAP1 MLOAD AND PUSH1 0x20 DUP14 ADD MSTORE MLOAD PUSH2 0x100 PUSH1 0x40 DUP14 ADD MSTORE PUSH2 0x120 DUP13 ADD SWAP1 PUSH2 0xFA2 JUMP JUMPDEST SWAP2 MLOAD PUSH1 0x1 PUSH1 0x1 PUSH1 0xA0 SHL SUB AND PUSH1 0x60 DUP12 ADD MSTORE MLOAD DUP10 DUP3 SUB PUSH1 0x1F NOT ADD PUSH1 0x80 DUP12 ADD MSTORE PUSH2 0xFA2 JUMP JUMPDEST SWAP2 MLOAD PUSH1 0xA0 DUP9 ADD MSTORE MLOAD DUP7 DUP3 SUB PUSH1 0x1F NOT ADD PUSH1 0xC0 DUP9 ADD MSTORE PUSH2 0xFA2 JUMP JUMPDEST SWAP1 MLOAD DUP5 DUP3 SUB PUSH1 0x1F NOT ADD PUSH1 0xE0 DUP7 ADD MSTORE PUSH2 0xFA2 JUMP JUMPDEST SWAP1 MLOAD PUSH2 0x100 DUP4 ADD MSTORE SUB SWAP1 RETURN JUMPDEST PUSH1 0x40 MLOAD PUSH3 0x461BCD PUSH1 0xE5 SHL DUP2 MSTORE PUSH1 0x20 PUSH1 0x4 DUP3 ADD MSTORE PUSH1 0x9 PUSH1 0x24 DUP3 ADD MSTORE PUSH9 0x24B73232BC1027A7A1 PUSH1 0xB9 SHL PUSH1 0x44 DUP3 ADD MSTORE PUSH1 0x64 SWAP1 REVERT JUMPDEST CALLVALUE PUSH2 0xF3 JUMPI PUSH0 CALLDATASIZE PUSH1 0x3 NOT ADD SLT PUSH2 0xF3 JUMPI PUSH1 0x20 PUSH1 0x1 SLOAD PUSH1 0x40 MLOAD SWAP1 DUP2 MSTORE RETURN JUMPDEST CALLVALUE PUSH2 0xF3 JUMPI PUSH0 CALLDATASIZE PUSH1 0x3 NOT ADD SLT PUSH2 0xF3 JUMPI PUSH1 0x40 MLOAD DUP1 PUSH1 0x20 PUSH1 0x5 SLOAD SWAP2 DUP3 DUP2 MSTORE ADD SWAP1 PUSH1 0x5 PUSH0 MSTORE PUSH32 0x36B6384B5ECA791C62761152D0C79BB0604C104A5FB6F4EB0703F3154BB3DB0 SWAP1 PUSH0 JUMPDEST DUP2 DUP2 LT PUSH2 0x76C JUMPI PUSH2 0x768 DUP6 PUSH2 0x75C DUP2 DUP8 SUB DUP3 PUSH2 0x10CC JUMP JUMPDEST PUSH1 0x40 MLOAD SWAP2 DUP3 SWAP2 DUP3 PUSH2 0xF1C JUMP JUMPDEST SUB SWAP1 RETURN JUMPDEST DUP3 SLOAD PUSH1 0x1 PUSH1 0x1 PUSH1 0xA0 SHL SUB AND DUP5 MSTORE PUSH1 0x20 SWAP1 SWAP4 ADD SWAP3 PUSH1 0x1 SWAP3 DUP4 ADD SWAP3 ADD PUSH2 0x745 JUMP JUMPDEST CALLVALUE PUSH2 0xF3 JUMPI PUSH1 0xE0 CALLDATASIZE PUSH1 0x3 NOT ADD SLT PUSH2 0xF3 JUMPI PUSH1 0x4 CALLDATALOAD PUSH8 0xFFFFFFFFFFFFFFFF DUP2 GT PUSH2 0xF3 JUMPI PUSH2 0x7BC SWAP1 CALLDATASIZE SWAP1 PUSH1 0x4 ADD PUSH2 0xF74 JUMP JUMPDEST PUSH1 0x24 CALLDATALOAD PUSH1 0x1 PUSH1 0x1 PUSH1 0xA0 SHL SUB DUP2 AND SWAP2 SWAP1 DUP3 SWAP1 SUB PUSH2 0xF3 JUMPI PUSH1 0x44 CALLDATALOAD PUSH8 0xFFFFFFFFFFFFFFFF DUP2 GT PUSH2 0xF3 JUMPI PUSH2 0x7F2 SWAP1 CALLDATASIZE SWAP1 PUSH1 0x4 ADD PUSH2 0xF74 JUMP JUMPDEST SWAP3 SWAP1 PUSH1 0x84 CALLDATALOAD PUSH8 0xFFFFFFFFFFFFFFFF DUP2 GT PUSH2 0xF3 JUMPI PUSH2 0x814 SWAP1 CALLDATASIZE SWAP1 PUSH1 0x4 ADD PUSH2 0xF74 JUMP JUMPDEST SWAP4 SWAP1 SWAP2 PUSH1 0xA4 CALLDATALOAD PUSH8 0xFFFFFFFFFFFFFFFF DUP2 GT PUSH2 0xF3 JUMPI PUSH2 0x837 SWAP1 CALLDATASIZE SWAP1 PUSH1 0x4 ADD PUSH2 0xF74 JUMP JUMPDEST SWAP4 SWAP1 SWAP3 PUSH1 0xC4 CALLDATALOAD SWAP5 CALLER PUSH0 MSTORE PUSH1 0x2 PUSH1 0x20 MSTORE PUSH1 0xFF PUSH1 0x40 PUSH0 KECCAK256 SLOAD AND ISZERO PUSH2 0xE68 JUMPI DUP7 PUSH0 MSTORE PUSH1 0x4 PUSH1 0x20 MSTORE PUSH1 0xFF PUSH1 0x40 PUSH0 KECCAK256 SLOAD AND ISZERO PUSH2 0xE2A JUMPI PUSH1 0x1 SLOAD SWAP9 PUSH1 0x1 PUSH1 0x40 SHL DUP11 LT ISZERO PUSH2 0xBB3 JUMPI PUSH1 0x1 DUP11 ADD DUP1 PUSH1 0x1 SSTORE PUSH2 0x889 DUP12 PUSH2 0xFC6 JUMP JUMPDEST POP POP DUP11 GT PUSH2 0xE16 JUMPI PUSH2 0x89A DUP11 PUSH2 0xFC6 JUMP JUMPDEST POP DUP1 SLOAD PUSH1 0x1 PUSH1 0x1 PUSH1 0xA0 SHL SUB NOT AND CALLER OR DUP2 SSTORE PUSH1 0x1 DUP2 ADD SWAP12 SWAP1 SWAP4 SWAP1 PUSH8 0xFFFFFFFFFFFFFFFF DUP3 GT PUSH2 0xBB3 JUMPI DUP13 DUP3 SWAP2 PUSH2 0x8CF DUP3 SLOAD PUSH2 0xFF6 JUMP JUMPDEST PUSH1 0x1F DUP2 GT PUSH2 0xDBC JUMPI JUMPDEST POP PUSH0 SWAP2 PUSH1 0x1F DUP5 GT PUSH1 0x1 EQ PUSH2 0xD56 JUMPI POP PUSH0 SWAP3 PUSH2 0xD4B JUMPI JUMPDEST POP POP DUP2 PUSH1 0x1 SHL SWAP2 PUSH0 NOT SWAP1 PUSH1 0x3 SHL SHR NOT AND OR DUP12 SSTORE JUMPDEST PUSH1 0x2 DUP4 ADD DUP1 SLOAD PUSH1 0x1 PUSH1 0x1 PUSH1 0xA0 SHL SUB NOT AND SWAP1 SWAP9 OR DUP9 SSTORE PUSH1 0x3 DUP4 ADD SWAP5 PUSH8 0xFFFFFFFFFFFFFFFF DUP3 GT PUSH2 0xBB3 JUMPI DUP2 SWAP1 PUSH2 0x937 DUP8 SLOAD PUSH2 0xFF6 JUMP JUMPDEST PUSH1 0x1F DUP2 GT PUSH2 0xCFB JUMPI JUMPDEST POP PUSH0 SWAP1 PUSH1 0x1F DUP4 GT PUSH1 0x1 EQ PUSH2 0xC94 JUMPI PUSH0 SWAP3 PUSH2 0xC89 JUMPI JUMPDEST POP POP DUP2 PUSH1 0x1 SHL SWAP2 PUSH0 NOT SWAP1 PUSH1 0x3 SHL SHR NOT AND OR DUP5 SSTORE JUMPDEST PUSH1 0x4 DUP3 ADD SWAP8 PUSH1 0x64 CALLDATALOAD DUP10 SSTORE PUSH1 0x5 DUP4 ADD SWAP4 PUSH8 0xFFFFFFFFFFFFFFFF DUP3 GT PUSH2 0xBB3 JUMPI DUP2 SWAP1 PUSH2 0x993 DUP7 SLOAD PUSH2 0xFF6 JUMP JUMPDEST PUSH1 0x1F DUP2 GT PUSH2 0xC39 JUMPI JUMPDEST POP PUSH0 SWAP1 PUSH1 0x1F DUP4 GT PUSH1 0x1 EQ PUSH2 0xBD2 JUMPI PUSH0 SWAP3 PUSH2 0xBC7 JUMPI JUMPDEST POP POP DUP2 PUSH1 0x1 SHL SWAP2 PUSH0 NOT SWAP1 PUSH1 0x3 SHL SHR NOT AND OR DUP4 SSTORE JUMPDEST PUSH1 0x6 DUP3 ADD SWAP5 PUSH8 0xFFFFFFFFFFFFFFFF DUP3 GT PUSH2 0xBB3 JUMPI PUSH2 0x9E3 DUP7 SLOAD PUSH2 0xFF6 JUMP JUMPDEST PUSH1 0x1F DUP2 GT PUSH2 0xB6E JUMPI JUMPDEST POP SWAP2 PUSH1 0x20 SWAP11 SWAP6 SWAP4 SWAP2 DUP11 SWAP8 SWAP6 SWAP4 PUSH0 SWAP1 PUSH1 0x1F DUP4 GT PUSH1 0x1 EQ PUSH2 0xAD4 JUMPI SWAP4 PUSH2 0xA97 PUSH32 0xAF677587E31CCFB15D9EE077663B9D20DEAA6D2E509D8A978BC3A638A7431A12 SWAP10 SWAP8 SWAP5 DUP5 PUSH2 0xAAA SWAP6 PUSH2 0xA89 SWAP12 SWAP10 SWAP6 PUSH2 0xAB8 SWAP10 PUSH0 SWAP3 PUSH2 0xAC9 JUMPI JUMPDEST POP POP DUP2 PUSH1 0x1 SHL SWAP2 PUSH0 NOT SWAP1 PUSH1 0x3 SHL SHR NOT AND OR DUP7 SSTORE JUMPDEST DUP8 PUSH1 0x7 DUP3 ADD SSTORE PUSH1 0x1 DUP1 PUSH1 0xA0 SHL SUB SWAP1 SLOAD AND SWAP12 PUSH1 0x1 DUP1 PUSH1 0xA0 SHL SUB SWAP1 SLOAD AND SWAP13 SLOAD SWAP3 PUSH1 0x40 MLOAD SWAP10 DUP11 SWAP10 PUSH1 0xC0 DUP12 MSTORE PUSH1 0xC0 DUP12 ADD SWAP1 PUSH2 0x102E JUMP JUMPDEST SWAP1 DUP10 DUP3 SUB PUSH1 0x20 DUP12 ADD MSTORE PUSH2 0x102E JUMP JUMPDEST SWAP2 PUSH1 0x40 DUP9 ADD MSTORE DUP7 DUP3 SUB PUSH1 0x60 DUP9 ADD MSTORE PUSH2 0x102E JUMP JUMPDEST SWAP1 DUP5 DUP3 SUB PUSH1 0x80 DUP7 ADD MSTORE PUSH2 0x102E JUMP JUMPDEST SWAP1 PUSH1 0xA0 DUP4 ADD MSTORE SUB SWAP1 LOG4 PUSH1 0x40 MLOAD SWAP1 DUP2 MSTORE RETURN JUMPDEST ADD CALLDATALOAD SWAP1 POP PUSH0 DUP1 PUSH2 0xA43 JUMP JUMPDEST PUSH1 0x1F NOT DUP4 AND SWAP2 DUP8 PUSH0 MSTORE DUP15 PUSH0 KECCAK256 SWAP3 PUSH0 JUMPDEST DUP2 DUP2 LT PUSH2 0xB53 JUMPI POP SWAP5 PUSH1 0x1 DUP6 PUSH2 0xA89 SWAP12 SWAP10 SWAP6 PUSH2 0xAB8 SWAP10 SWAP6 PUSH2 0xA97 SWAP6 PUSH32 0xAF677587E31CCFB15D9EE077663B9D20DEAA6D2E509D8A978BC3A638A7431A12 SWAP16 SWAP14 SWAP11 SWAP10 PUSH2 0xAAA SWAP11 LT PUSH2 0xB3A JUMPI JUMPDEST POP POP POP DUP2 SHL ADD DUP7 SSTORE PUSH2 0xA57 JUMP JUMPDEST ADD CALLDATALOAD PUSH0 NOT PUSH1 0x3 DUP5 SWAP1 SHL PUSH1 0xF8 AND SHR NOT AND SWAP1 SSTORE PUSH0 DUP1 DUP1 PUSH2 0xB2D JUMP JUMPDEST DUP3 DUP5 ADD CALLDATALOAD DUP6 SSTORE DUP16 SWAP13 POP PUSH1 0x1 SWAP1 SWAP5 ADD SWAP4 PUSH1 0x20 SWAP3 DUP4 ADD SWAP3 ADD PUSH2 0xAE3 JUMP JUMPDEST DUP7 PUSH0 MSTORE PUSH1 0x20 PUSH0 KECCAK256 PUSH1 0x1F DUP5 ADD PUSH1 0x5 SHR DUP2 ADD SWAP2 PUSH1 0x20 DUP6 LT PUSH2 0xBA9 JUMPI JUMPDEST PUSH1 0x1F ADD PUSH1 0x5 SHR ADD SWAP1 JUMPDEST DUP2 DUP2 LT PUSH2 0xB9E JUMPI POP PUSH2 0x9EC JUMP JUMPDEST PUSH0 DUP2 SSTORE PUSH1 0x1 ADD PUSH2 0xB91 JUMP JUMPDEST SWAP1 SWAP2 POP DUP2 SWAP1 PUSH2 0xB88 JUMP JUMPDEST PUSH4 0x4E487B71 PUSH1 0xE0 SHL PUSH0 MSTORE PUSH1 0x41 PUSH1 0x4 MSTORE PUSH1 0x24 PUSH0 REVERT JUMPDEST ADD CALLDATALOAD SWAP1 POP DUP13 DUP1 PUSH2 0x9B1 JUMP JUMPDEST SWAP1 SWAP2 POP PUSH1 0x1F NOT DUP4 AND SWAP2 DUP7 PUSH0 MSTORE PUSH1 0x20 PUSH0 KECCAK256 SWAP3 PUSH0 JUMPDEST DUP2 DUP2 LT PUSH2 0xC21 JUMPI POP SWAP1 DUP5 PUSH1 0x1 SWAP6 SWAP5 SWAP4 SWAP3 LT PUSH2 0xC08 JUMPI JUMPDEST POP POP POP DUP2 SHL ADD DUP4 SSTORE PUSH2 0x9C5 JUMP JUMPDEST ADD CALLDATALOAD PUSH0 NOT PUSH1 0x3 DUP5 SWAP1 SHL PUSH1 0xF8 AND SHR NOT AND SWAP1 SSTORE DUP13 DUP1 DUP1 PUSH2 0xBFB JUMP JUMPDEST SWAP2 SWAP4 PUSH1 0x20 PUSH1 0x1 DUP2 SWAP3 DUP8 DUP8 ADD CALLDATALOAD DUP2 SSTORE ADD SWAP6 ADD SWAP3 ADD PUSH2 0xBE5 JUMP JUMPDEST SWAP1 SWAP2 POP DUP6 PUSH0 MSTORE PUSH1 0x20 PUSH0 KECCAK256 PUSH1 0x1F DUP5 ADD PUSH1 0x5 SHR DUP2 ADD SWAP2 PUSH1 0x20 DUP6 LT PUSH2 0xC7F JUMPI JUMPDEST SWAP1 PUSH1 0x1F DUP6 SWAP5 SWAP4 SWAP3 ADD PUSH1 0x5 SHR ADD SWAP1 JUMPDEST DUP2 DUP2 LT PUSH2 0xC71 JUMPI POP PUSH2 0x99C JUMP JUMPDEST PUSH0 DUP2 SSTORE DUP5 SWAP4 POP PUSH1 0x1 ADD PUSH2 0xC64 JUMP JUMPDEST SWAP1 SWAP2 POP DUP2 SWAP1 PUSH2 0xC56 JUMP JUMPDEST ADD CALLDATALOAD SWAP1 POP DUP13 DUP1 PUSH2 0x955 JUMP JUMPDEST SWAP1 SWAP2 POP PUSH1 0x1F NOT DUP4 AND SWAP2 DUP8 PUSH0 MSTORE PUSH1 0x20 PUSH0 KECCAK256 SWAP3 PUSH0 JUMPDEST DUP2 DUP2 LT PUSH2 0xCE3 JUMPI POP SWAP1 DUP5 PUSH1 0x1 SWAP6 SWAP5 SWAP4 SWAP3 LT PUSH2 0xCCA JUMPI JUMPDEST POP POP POP DUP2 SHL ADD DUP5 SSTORE PUSH2 0x969 JUMP JUMPDEST ADD CALLDATALOAD PUSH0 NOT PUSH1 0x3 DUP5 SWAP1 SHL PUSH1 0xF8 AND SHR NOT AND SWAP1 SSTORE DUP13 DUP1 DUP1 PUSH2 0xCBD JUMP JUMPDEST SWAP2 SWAP4 PUSH1 0x20 PUSH1 0x1 DUP2 SWAP3 DUP8 DUP8 ADD CALLDATALOAD DUP2 SSTORE ADD SWAP6 ADD SWAP3 ADD PUSH2 0xCA7 JUMP JUMPDEST SWAP1 SWAP2 POP DUP7 PUSH0 MSTORE PUSH1 0x20 PUSH0 KECCAK256 PUSH1 0x1F DUP5 ADD PUSH1 0x5 SHR DUP2 ADD SWAP2 PUSH1 0x20 DUP6 LT PUSH2 0xD41 JUMPI JUMPDEST SWAP1 PUSH1 0x1F DUP6 SWAP5 SWAP4 SWAP3 ADD PUSH1 0x5 SHR ADD SWAP1 JUMPDEST DUP2 DUP2 LT PUSH2 0xD33 JUMPI POP PUSH2 0x940 JUMP JUMPDEST PUSH0 DUP2 SSTORE DUP5 SWAP4 POP PUSH1 0x1 ADD PUSH2 0xD26 JUMP JUMPDEST SWAP1 SWAP2 POP DUP2 SWAP1 PUSH2 0xD18 JUMP JUMPDEST ADD CALLDATALOAD SWAP1 POP DUP14 DUP1 PUSH2 0x8EE JUMP JUMPDEST SWAP3 POP SWAP1 PUSH1 0x1F NOT DUP5 AND SWAP3 PUSH0 MSTORE PUSH1 0x20 PUSH0 KECCAK256 SWAP3 PUSH0 JUMPDEST DUP2 DUP2 LT PUSH2 0xDA4 JUMPI POP SWAP1 DUP5 PUSH1 0x1 SWAP6 SWAP5 SWAP4 SWAP3 LT PUSH2 0xD8B JUMPI JUMPDEST POP POP POP DUP2 SHL ADD DUP12 SSTORE PUSH2 0x902 JUMP JUMPDEST ADD CALLDATALOAD PUSH0 NOT PUSH1 0x3 DUP5 SWAP1 SHL PUSH1 0xF8 AND SHR NOT AND SWAP1 SSTORE DUP14 DUP1 DUP1 PUSH2 0xD7E JUMP JUMPDEST SWAP2 SWAP4 PUSH1 0x20 PUSH1 0x1 DUP2 SWAP3 DUP8 DUP8 ADD CALLDATALOAD DUP2 SSTORE ADD SWAP6 ADD SWAP3 ADD PUSH2 0xD68 JUMP JUMPDEST SWAP2 SWAP1 SWAP3 POP PUSH0 MSTORE PUSH1 0x20 PUSH0 KECCAK256 PUSH1 0x1F DUP5 ADD PUSH1 0x5 SHR DUP2 ADD SWAP2 PUSH1 0x20 DUP6 LT PUSH2 0xE0C JUMPI JUMPDEST SWAP2 DUP16 SWAP3 SWAP2 PUSH1 0x1F DUP7 SWAP6 SWAP4 ADD PUSH1 0x5 SHR ADD SWAP1 JUMPDEST DUP2 DUP2 LT PUSH2 0xDF6 JUMPI POP PUSH2 0x8D8 JUMP JUMPDEST SWAP1 SWAP3 POP PUSH1 0x1 SWAP2 SWAP4 POP PUSH0 DUP2 SSTORE ADD SWAP2 DUP15 SWAP2 DUP5 SWAP4 PUSH2 0xDE9 JUMP JUMPDEST SWAP1 SWAP2 POP DUP2 SWAP1 PUSH2 0xDD9 JUMP JUMPDEST PUSH4 0x4E487B71 PUSH1 0xE0 SHL PUSH0 MSTORE PUSH1 0x11 PUSH1 0x4 MSTORE PUSH1 0x24 PUSH0 REVERT JUMPDEST PUSH1 0x40 MLOAD PUSH3 0x461BCD PUSH1 0xE5 SHL DUP2 MSTORE PUSH1 0x20 PUSH1 0x4 DUP3 ADD MSTORE PUSH1 0x16 PUSH1 0x24 DUP3 ADD MSTORE PUSH22 0x149958DA5C1A595B9D081B9BDD08185C1C1C9BDD9959 PUSH1 0x52 SHL PUSH1 0x44 DUP3 ADD MSTORE PUSH1 0x64 SWAP1 REVERT JUMPDEST PUSH1 0x40 MLOAD PUSH3 0x461BCD PUSH1 0xE5 SHL DUP2 MSTORE PUSH1 0x20 PUSH1 0x4 DUP3 ADD MSTORE PUSH1 0x13 PUSH1 0x24 DUP3 ADD MSTORE PUSH19 0x14D95B99195C881B9BDD08185C1C1C9BDD9959 PUSH1 0x6A SHL PUSH1 0x44 DUP3 ADD MSTORE PUSH1 0x64 SWAP1 REVERT JUMPDEST CALLVALUE PUSH2 0xF3 JUMPI PUSH0 CALLDATASIZE PUSH1 0x3 NOT ADD SLT PUSH2 0xF3 JUMPI PUSH1 0x3 SLOAD DUP1 DUP3 MSTORE PUSH1 0x20 DUP3 ADD SWAP1 PUSH1 0x3 PUSH0 MSTORE PUSH32 0xC2575A0E9E593C00F959F8C92F12DB2869C3395A3B0502D05E2516446F71F85B SWAP1 PUSH0 JUMPDEST DUP2 DUP2 LT PUSH2 0xEFD JUMPI PUSH2 0x768 DUP6 PUSH2 0x75C DUP2 DUP8 SUB DUP3 PUSH2 0x10CC JUMP JUMPDEST DUP3 SLOAD PUSH1 0x1 PUSH1 0x1 PUSH1 0xA0 SHL SUB AND DUP5 MSTORE PUSH1 0x20 SWAP1 SWAP4 ADD SWAP3 PUSH1 0x1 SWAP3 DUP4 ADD SWAP3 ADD PUSH2 0xEE6 JUMP JUMPDEST PUSH1 0x20 PUSH1 0x40 DUP2 DUP4 ADD SWAP3 DUP3 DUP2 MSTORE DUP5 MLOAD DUP1 SWAP5 MSTORE ADD SWAP3 ADD SWAP1 PUSH0 JUMPDEST DUP2 DUP2 LT PUSH2 0xF3F JUMPI POP POP POP SWAP1 JUMP JUMPDEST DUP3 MLOAD PUSH1 0x1 PUSH1 0x1 PUSH1 0xA0 SHL SUB AND DUP5 MSTORE PUSH1 0x20 SWAP4 DUP5 ADD SWAP4 SWAP1 SWAP3 ADD SWAP2 PUSH1 0x1 ADD PUSH2 0xF32 JUMP JUMPDEST PUSH1 0x4 CALLDATALOAD SWAP1 PUSH1 0x1 PUSH1 0x1 PUSH1 0xA0 SHL SUB DUP3 AND DUP3 SUB PUSH2 0xF3 JUMPI JUMP JUMPDEST SWAP2 DUP2 PUSH1 0x1F DUP5 ADD SLT ISZERO PUSH2 0xF3 JUMPI DUP3 CALLDATALOAD SWAP2 PUSH8 0xFFFFFFFFFFFFFFFF DUP4 GT PUSH2 0xF3 JUMPI PUSH1 0x20 DUP4 DUP2 DUP7 ADD SWAP6 ADD ADD GT PUSH2 0xF3 JUMPI JUMP JUMPDEST DUP1 MLOAD DUP1 DUP4 MSTORE PUSH1 0x20 SWAP3 SWAP2 DUP2 SWAP1 DUP5 ADD DUP5 DUP5 ADD MCOPY PUSH0 DUP3 DUP3 ADD DUP5 ADD MSTORE PUSH1 0x1F ADD PUSH1 0x1F NOT AND ADD ADD SWAP1 JUMP JUMPDEST PUSH1 0x1 SLOAD DUP2 LT ISZERO PUSH2 0xFE2 JUMPI PUSH1 0x1 PUSH0 MSTORE PUSH1 0x20 PUSH0 KECCAK256 SWAP1 PUSH1 0x3 SHL ADD SWAP1 PUSH0 SWAP1 JUMP JUMPDEST PUSH4 0x4E487B71 PUSH1 0xE0 SHL PUSH0 MSTORE PUSH1 0x32 PUSH1 0x4 MSTORE PUSH1 0x24 PUSH0 REVERT JUMPDEST SWAP1 PUSH1 0x1 DUP3 DUP2 SHR SWAP3 AND DUP1 ISZERO PUSH2 0x1024 JUMPI JUMPDEST PUSH1 0x20 DUP4 LT EQ PUSH2 0x1010 JUMPI JUMP JUMPDEST PUSH4 0x4E487B71 PUSH1 0xE0 SHL PUSH0 MSTORE PUSH1 0x22 PUSH1 0x4 MSTORE PUSH1 0x24 PUSH0 REVERT JUMPDEST SWAP2 PUSH1 0x7F AND SWAP2 PUSH2 0x1005 JUMP JUMPDEST PUSH0 SWAP3 SWAP2 DUP2 SLOAD SWAP2 PUSH2 0x103D DUP4 PUSH2 0xFF6 JUMP JUMPDEST DUP1 DUP4 MSTORE SWAP3 PUSH1 0x1 DUP2 AND SWAP1 DUP2 ISZERO PUSH2 0x1092 JUMPI POP PUSH1 0x1 EQ PUSH2 0x1059 JUMPI POP POP POP JUMP JUMPDEST PUSH0 SWAP1 DUP2 MSTORE PUSH1 0x20 DUP2 KECCAK256 SWAP4 SWAP5 POP SWAP2 SWAP3 JUMPDEST DUP4 DUP4 LT PUSH2 0x1078 JUMPI POP PUSH1 0x20 SWAP3 POP ADD ADD SWAP1 JUMP JUMPDEST PUSH1 0x1 DUP2 PUSH1 0x20 SWAP3 SWAP5 SWAP4 SWAP5 SLOAD DUP4 DUP6 DUP8 ADD ADD MSTORE ADD SWAP2 ADD SWAP2 SWAP1 PUSH2 0x1067 JUMP JUMPDEST SWAP2 POP POP PUSH1 0x20 SWAP4 SWAP5 POP PUSH1 0xFF SWAP3 SWAP2 SWAP3 NOT AND DUP4 DUP4 ADD MSTORE ISZERO ISZERO PUSH1 0x5 SHL ADD ADD SWAP1 JUMP JUMPDEST PUSH2 0x100 DUP2 ADD SWAP1 DUP2 LT PUSH8 0xFFFFFFFFFFFFFFFF DUP3 GT OR PUSH2 0xBB3 JUMPI PUSH1 0x40 MSTORE JUMP JUMPDEST SWAP1 PUSH1 0x1F DUP1 NOT SWAP2 ADD AND DUP2 ADD SWAP1 DUP2 LT PUSH8 0xFFFFFFFFFFFFFFFF DUP3 GT OR PUSH2 0xBB3 JUMPI PUSH1 0x40 MSTORE JUMP JUMPDEST PUSH1 0x40 SWAP1 PUSH1 0x3 NOT ADD SLT PUSH2 0xF3 JUMPI PUSH1 0x4 CALLDATALOAD PUSH1 0x1 PUSH1 0x1 PUSH1 0xA0 SHL SUB DUP2 AND DUP2 SUB PUSH2 0xF3 JUMPI SWAP1 PUSH1 0x24 CALLDATALOAD DUP1 ISZERO ISZERO DUP2 SUB PUSH2 0xF3 JUMPI SWAP1 JUMP JUMPDEST ISZERO PUSH2 0x1124 JUMPI JUMP JUMPDEST PUSH1 0x40 MLOAD PUSH3 0x461BCD PUSH1 0xE5 SHL DUP2 MSTORE PUSH1 0x20 PUSH1 0x4 DUP3 ADD MSTORE PUSH1 0x9 PUSH1 0x24 DUP3 ADD MSTORE PUSH9 0x2737BA1037BBB732B9 PUSH1 0xB9 SHL PUSH1 0x44 DUP3 ADD MSTORE PUSH1 0x64 SWAP1 REVERT JUMPDEST DUP1 SLOAD DUP3 LT ISZERO PUSH2 0xFE2 JUMPI PUSH0 MSTORE PUSH1 0x20 PUSH0 KECCAK256 ADD SWAP1 PUSH0 SWAP1 JUMP JUMPDEST PUSH0 JUMPDEST PUSH1 0x3 SLOAD DUP1 DUP3 LT ISZERO PUSH2 0x1248 JUMPI PUSH2 0x1182 DUP3 PUSH1 0x3 PUSH2 0x1155 JUMP JUMPDEST SWAP1 SLOAD PUSH1 0x3 SWAP2 SWAP1 SWAP2 SHL SHR PUSH1 0x1 PUSH1 0x1 PUSH1 0xA0 SHL SUB SWAP1 DUP2 AND SWAP1 DUP5 AND EQ PUSH2 0x11A7 JUMPI POP PUSH1 0x1 ADD PUSH2 0x116C JUMP JUMPDEST PUSH0 NOT DUP2 ADD SWAP3 POP DUP3 GT PUSH2 0xE16 JUMPI PUSH2 0x11DC PUSH2 0x11C4 PUSH2 0x1200 SWAP4 PUSH1 0x3 PUSH2 0x1155 JUMP JUMPDEST SWAP1 SLOAD PUSH1 0x3 SWAP2 DUP3 SHL SHR PUSH1 0x1 PUSH1 0x1 PUSH1 0xA0 SHL SUB AND SWAP3 SWAP1 PUSH2 0x1155 JUMP JUMPDEST DUP2 SLOAD PUSH1 0x1 PUSH1 0x1 PUSH1 0xA0 SHL SUB SWAP4 DUP5 AND PUSH1 0x3 SWAP3 SWAP1 SWAP3 SHL SWAP2 DUP3 SHL SWAP4 SWAP1 SWAP2 SHL NOT AND SWAP2 SWAP1 SWAP2 OR SWAP1 SSTORE JUMP JUMPDEST PUSH1 0x3 SLOAD DUP1 ISZERO PUSH2 0x1234 JUMPI PUSH0 NOT ADD PUSH2 0x122F PUSH2 0x121A DUP3 PUSH1 0x3 PUSH2 0x1155 JUMP JUMPDEST DUP2 SLOAD SWAP1 PUSH1 0x1 DUP1 PUSH1 0xA0 SHL SUB SWAP1 PUSH1 0x3 SHL SHL NOT AND SWAP1 SSTORE JUMP JUMPDEST PUSH1 0x3 SSTORE JUMP JUMPDEST PUSH4 0x4E487B71 PUSH1 0xE0 SHL PUSH0 MSTORE PUSH1 0x31 PUSH1 0x4 MSTORE PUSH1 0x24 PUSH0 REVERT JUMPDEST POP POP POP JUMP JUMPDEST PUSH0 JUMPDEST PUSH1 0x5 SLOAD DUP1 DUP3 LT ISZERO PUSH2 0x1248 JUMPI PUSH2 0x1265 DUP3 PUSH1 0x5 PUSH2 0x1155 JUMP JUMPDEST SWAP1 SLOAD PUSH1 0x3 SWAP2 SWAP1 SWAP2 SHL SHR PUSH1 0x1 PUSH1 0x1 PUSH1 0xA0 SHL SUB SWAP1 DUP2 AND SWAP1 DUP5 AND EQ PUSH2 0x128A JUMPI POP PUSH1 0x1 ADD PUSH2 0x124F JUMP JUMPDEST PUSH0 NOT DUP2 ADD SWAP3 POP DUP3 GT PUSH2 0xE16 JUMPI PUSH2 0x11DC PUSH2 0x12A7 PUSH2 0x12C1 SWAP4 PUSH1 0x5 PUSH2 0x1155 JUMP JUMPDEST SWAP1 SLOAD PUSH1 0x3 SWAP2 SWAP1 SWAP2 SHL SHR PUSH1 0x1 PUSH1 0x1 PUSH1 0xA0 SHL SUB AND SWAP2 PUSH1 0x5 PUSH2 0x1155 JUMP JUMPDEST PUSH1 0x5 SLOAD DUP1 ISZERO PUSH2 0x1234 JUMPI PUSH0 NOT ADD PUSH2 0x12DB PUSH2 0x121A DUP3 PUSH1 0x5 PUSH2 0x1155 JUMP JUMPDEST PUSH1 0x5 SSTORE JUMP JUMPDEST PUSH1 0x3 SLOAD PUSH0 JUMPDEST DUP2 DUP2 LT PUSH2 0x1315 JUMPI POP POP PUSH1 0x3 SLOAD SWAP1 PUSH1 0x1 PUSH1 0x40 SHL DUP3 LT ISZERO PUSH2 0xBB3 JUMPI PUSH2 0x11DC DUP3 PUSH1 0x1 PUSH2 0x1313 SWAP5 ADD PUSH1 0x3 SSTORE PUSH1 0x3 PUSH2 0x1155 JUMP JUMPDEST JUMP JUMPDEST PUSH2 0x1320 DUP2 PUSH1 0x3 PUSH2 0x1155 JUMP JUMPDEST SWAP1 SLOAD PUSH1 0x3 SWAP2 SWAP1 SWAP2 SHL SHR PUSH1 0x1 PUSH1 0x1 PUSH1 0xA0 SHL SUB SWAP1 DUP2 AND SWAP1 DUP5 AND EQ PUSH2 0x1248 JUMPI PUSH1 0x1 ADD PUSH2 0x12E5 JUMP JUMPDEST PUSH1 0x5 SLOAD PUSH0 JUMPDEST DUP2 DUP2 LT PUSH2 0x1377 JUMPI POP POP PUSH1 0x5 SLOAD SWAP1 PUSH1 0x1 PUSH1 0x40 SHL DUP3 LT ISZERO PUSH2 0xBB3 JUMPI PUSH2 0x11DC DUP3 PUSH1 0x1 PUSH2 0x1313 SWAP5 ADD PUSH1 0x5 SSTORE PUSH1 0x5 PUSH2 0x1155 JUMP JUMPDEST PUSH2 0x1382 DUP2 PUSH1 0x5 PUSH2 0x1155 JUMP JUMPDEST SWAP1 SLOAD PUSH1 0x3 SWAP2 SWAP1 SWAP2 SHL SHR PUSH1 0x1 PUSH1 0x1 PUSH1 0xA0 SHL SUB SWAP1 DUP2 AND SWAP1 DUP5 AND EQ PUSH2 0x1248 JUMPI PUSH1 0x1 ADD PUSH2 0x1349 JUMP INVALID LOG2 PUSH5 0x6970667358 0x22 SLT KECCAK256 LOG2 0x22 0xE5 STATICCALL RETURNDATASIZE 0x21 PUSH24 0x36BE4AEC2CE76A7704FE64F2BA6241ADF5238E2F80CA2F9B 0xB7 PUSH5 0x736F6C6343 STOP ADDMOD SHR STOP CALLER "},"methodIdentifiers":{"addTransaction(string,address,string,uint256,string,string,uint256)":"2a0d31d4","approvedRecipients(address)":"dead610a","approvedSenders(address)":"1ccf9435","getApprovedRecipients()":"2c0f1243","getApprovedSenders()":"156c077d","getTransaction(uint256)":"33ea3dc8","getTransactionCount()":"2e7700f0","isApprovedRecipient(address)":"dbd5c317","isApprovedSender(address)":"fe04d690","owner()":"8da5cb5b","setApprovedRecipient(address,bool)":"d7d0a094","setApprovedSender(address,bool)":"ad3c3e17","transactions(uint256)":"9ace38c2","transferOwnership(address)":"f2fde38b"}}}}}